{
  "contractName": "Qr",
  "abi": [
    {
      "inputs": [
        {
          "internalType": "string",
          "name": "_nombre",
          "type": "string"
        },
        {
          "internalType": "uint256",
          "name": "_fecha",
          "type": "uint256"
        },
        {
          "internalType": "uint256",
          "name": "_cost",
          "type": "uint256"
        }
      ],
      "stateMutability": "nonpayable",
      "type": "constructor"
    },
    {
      "inputs": [],
      "name": "admin",
      "outputs": [
        {
          "internalType": "address payable",
          "name": "",
          "type": "address"
        }
      ],
      "stateMutability": "view",
      "type": "function",
      "constant": true
    },
    {
      "inputs": [
        {
          "internalType": "address",
          "name": "",
          "type": "address"
        }
      ],
      "name": "asistente",
      "outputs": [
        {
          "internalType": "string",
          "name": "nombre",
          "type": "string"
        },
        {
          "internalType": "string",
          "name": "email",
          "type": "string"
        }
      ],
      "stateMutability": "view",
      "type": "function",
      "constant": true
    },
    {
      "inputs": [
        {
          "internalType": "uint256",
          "name": "",
          "type": "uint256"
        }
      ],
      "name": "asistentes",
      "outputs": [
        {
          "internalType": "address payable",
          "name": "",
          "type": "address"
        }
      ],
      "stateMutability": "view",
      "type": "function",
      "constant": true
    },
    {
      "inputs": [],
      "name": "cost",
      "outputs": [
        {
          "internalType": "uint256",
          "name": "",
          "type": "uint256"
        }
      ],
      "stateMutability": "view",
      "type": "function",
      "constant": true
    },
    {
      "inputs": [],
      "name": "fecha",
      "outputs": [
        {
          "internalType": "uint256",
          "name": "",
          "type": "uint256"
        }
      ],
      "stateMutability": "view",
      "type": "function",
      "constant": true
    },
    {
      "inputs": [],
      "name": "nombre",
      "outputs": [
        {
          "internalType": "string",
          "name": "",
          "type": "string"
        }
      ],
      "stateMutability": "view",
      "type": "function",
      "constant": true
    },
    {
      "stateMutability": "payable",
      "type": "receive",
      "payable": true
    },
    {
      "inputs": [],
      "name": "asistentesLength",
      "outputs": [
        {
          "internalType": "uint256",
          "name": "",
          "type": "uint256"
        }
      ],
      "stateMutability": "view",
      "type": "function",
      "constant": true
    },
    {
      "inputs": [
        {
          "internalType": "string",
          "name": "_nombre",
          "type": "string"
        },
        {
          "internalType": "string",
          "name": "_email",
          "type": "string"
        }
      ],
      "name": "compraEntrada",
      "outputs": [],
      "stateMutability": "nonpayable",
      "type": "function"
    },
    {
      "inputs": [],
      "name": "whoAmI",
      "outputs": [
        {
          "internalType": "string",
          "name": "_nombre",
          "type": "string"
        },
        {
          "internalType": "string",
          "name": "_email",
          "type": "string"
        }
      ],
      "stateMutability": "view",
      "type": "function",
      "constant": true
    },
    {
      "inputs": [],
      "name": "getBalance",
      "outputs": [
        {
          "internalType": "uint256",
          "name": "",
          "type": "uint256"
        }
      ],
      "stateMutability": "view",
      "type": "function",
      "constant": true
    }
  ],
  "bytecode": "0x608060405260008060006101000a81548160ff0219169083151502179055503480156200002b57600080fd5b506040516200132338038062001323833981810160405260608110156200005157600080fd5b81019080805160405193929190846401000000008211156200007257600080fd5b838201915060208201858111156200008957600080fd5b8251866001820283011164010000000082111715620000a757600080fd5b8083526020830192505050908051906020019080838360005b83811015620000dd578082015181840152602081019050620000c0565b50505050905090810190601f1680156200010b5780820380516001836020036101000a031916815260200191505b50604052602001805190602001909291908051906020019092919050505060008390506000815114156200018b576040517f08c379a0000000000000000000000000000000000000000000000000000000008152600401808060200182810382526027815260200180620012d46027913960400191505060405180910390fd5b6000831415620001e7576040517f08c379a0000000000000000000000000000000000000000000000000000000008152600401808060200182810382526028815260200180620012fb6028913960400191505060405180910390fd5b600082141580620001f85750600082145b6200024f576040517f08c379a0000000000000000000000000000000000000000000000000000000008152600401808060200182810382526028815260200180620012ac6028913960400191505060405180910390fd5b33600060016101000a81548173ffffffffffffffffffffffffffffffffffffffff021916908373ffffffffffffffffffffffffffffffffffffffff160217905550826002819055508360019080519060200190620002af929190620002c1565b50816003819055505050505062000377565b828054600181600116156101000203166002900490600052602060002090601f016020900481019282620002f9576000855562000345565b82601f106200031457805160ff191683800117855562000345565b8280016001018555821562000345579182015b828111156200034457825182559160200191906001019062000327565b5b50905062000354919062000358565b5090565b5b808211156200037357600081600090555060010162000359565b5090565b610f2580620003876000396000f3fe6080604052600436106100955760003560e01c80637e81e0d5116100595780637e81e0d51461030c578063a52ae00814610337578063bc7b35b214610496578063da91254c14610526578063f851a44014610622576100eb565b80630d4b1ecf146100f05780630f444d2c1461011b57806312065fe01461018057806313faede6146101ab5780633629e10f146101d6576100eb565b366100eb576040517f08c379a0000000000000000000000000000000000000000000000000000000008152600401808060200182810382526022815260200180610ece6022913960400191505060405180910390fd5b600080fd5b3480156100fc57600080fd5b50610105610663565b6040518082815260200191505060405180910390f35b34801561012757600080fd5b506101546004803603602081101561013e57600080fd5b8101908080359060200190929190505050610670565b604051808273ffffffffffffffffffffffffffffffffffffffff16815260200191505060405180910390f35b34801561018c57600080fd5b506101956106af565b6040518082815260200191505060405180910390f35b3480156101b757600080fd5b506101c06106ef565b6040518082815260200191505060405180910390f35b3480156101e257600080fd5b50610225600480360360208110156101f957600080fd5b81019080803573ffffffffffffffffffffffffffffffffffffffff1690602001909291905050506106f5565b604051808060200180602001838103835285818151815260200191508051906020019080838360005b8381101561026957808201518184015260208101905061024e565b50505050905090810190601f1680156102965780820380516001836020036101000a031916815260200191505b50838103825284818151815260200191508051906020019080838360005b838110156102cf5780820151818401526020810190506102b4565b50505050905090810190601f1680156102fc5780820380516001836020036101000a031916815260200191505b5094505050505060405180910390f35b34801561031857600080fd5b50610321610849565b6040518082815260200191505060405180910390f35b34801561034357600080fd5b506104946004803603604081101561035a57600080fd5b810190808035906020019064010000000081111561037757600080fd5b82018360208201111561038957600080fd5b803590602001918460018302840111640100000000831117156103ab57600080fd5b91908080601f016020809104026020016040519081016040528093929190818152602001838380828437600081840152601f19601f8201169050808301925050505050505091929192908035906020019064010000000081111561040e57600080fd5b82018360208201111561042057600080fd5b8035906020019184600183028401116401000000008311171561044257600080fd5b91908080601f016020809104026020016040519081016040528093929190818152602001838380828437600081840152601f19601f82011690508083019250505050505050919291929050505061084f565b005b3480156104a257600080fd5b506104ab610a47565b6040518080602001828103825283818151815260200191508051906020019080838360005b838110156104eb5780820151818401526020810190506104d0565b50505050905090810190601f1680156105185780820380516001836020036101000a031916815260200191505b509250505060405180910390f35b34801561053257600080fd5b5061053b610ae5565b604051808060200180602001838103835285818151815260200191508051906020019080838360005b8381101561057f578082015181840152602081019050610564565b50505050905090810190601f1680156105ac5780820380516001836020036101000a031916815260200191505b50838103825284818151815260200191508051906020019080838360005b838110156105e55780820151818401526020810190506105ca565b50505050905090810190601f1680156106125780820380516001836020036101000a031916815260200191505b5094505050505060405180910390f35b34801561062e57600080fd5b50610637610d08565b604051808273ffffffffffffffffffffffffffffffffffffffff16815260200191505060405180910390f35b6000600580549050905090565b6005818154811061068057600080fd5b906000526020600020016000915054906101000a900473ffffffffffffffffffffffffffffffffffffffff1681565b60008060019054906101000a900473ffffffffffffffffffffffffffffffffffffffff1673ffffffffffffffffffffffffffffffffffffffff1631905090565b60035481565b6004602052806000526040600020600091509050806000018054600181600116156101000203166002900480601f0160208091040260200160405190810160405280929190818152602001828054600181600116156101000203166002900480156107a15780601f10610776576101008083540402835291602001916107a1565b820191906000526020600020905b81548152906001019060200180831161078457829003601f168201915b505050505090806001018054600181600116156101000203166002900480601f01602080910402602001604051908101604052809291908181526020018280546001816001161561010002031660029004801561083f5780601f106108145761010080835404028352916020019161083f565b820191906000526020600020905b81548152906001019060200180831161082257829003601f168201915b5050505050905082565b60025481565b61085833610d2e565b156108cb576040517f08c379a000000000000000000000000000000000000000000000000000000000815260040180806020018281038252601e8152602001807f536f6c6f207065726d697469646f2061206e6f206173697374656e746573000081525060200191505060405180910390fd5b6000829050600081511415610948576040517f08c379a000000000000000000000000000000000000000000000000000000000815260040180806020018281038252601c8152602001807f456c206e6f6d627265206e6f2070756564652073657220766163696f0000000081525060200191505060405180910390fd5b6000604051806040016040528085815260200184815250905080600460003373ffffffffffffffffffffffffffffffffffffffff1673ffffffffffffffffffffffffffffffffffffffff16815260200190815260200160002060008201518160000190805190602001906109bd929190610e22565b5060208201518160010190805190602001906109da929190610e22565b509050506005339080600181540180825580915050600190039060005260206000200160009091909190916101000a81548173ffffffffffffffffffffffffffffffffffffffff021916908373ffffffffffffffffffffffffffffffffffffffff16021790555050505050565b60018054600181600116156101000203166002900480601f016020809104026020016040519081016040528092919081815260200182805460018160011615610100020316600290048015610add5780601f10610ab257610100808354040283529160200191610add565b820191906000526020600020905b815481529060010190602001808311610ac057829003601f168201915b505050505081565b606080610af133610d2e565b610b63576040517f08c379a000000000000000000000000000000000000000000000000000000000815260040180806020018281038252601b8152602001807f536f6c6f207065726d697469646f2061206173697374656e746573000000000081525060200191505060405180910390fd5b6000600460003373ffffffffffffffffffffffffffffffffffffffff1673ffffffffffffffffffffffffffffffffffffffff168152602001908152602001600020604051806040016040529081600082018054600181600116156101000203166002900480601f016020809104026020016040519081016040528092919081815260200182805460018160011615610100020316600290048015610c485780601f10610c1d57610100808354040283529160200191610c48565b820191906000526020600020905b815481529060010190602001808311610c2b57829003601f168201915b50505050508152602001600182018054600181600116156101000203166002900480601f016020809104026020016040519081016040528092919081815260200182805460018160011615610100020316600290048015610cea5780601f10610cbf57610100808354040283529160200191610cea565b820191906000526020600020905b815481529060010190602001808311610ccd57829003601f168201915b50505050508152505090508060000151925080602001519150509091565b600060019054906101000a900473ffffffffffffffffffffffffffffffffffffffff1681565b600080600460008473ffffffffffffffffffffffffffffffffffffffff1673ffffffffffffffffffffffffffffffffffffffff1681526020019081526020016000206000018054600181600116156101000203166002900480601f016020809104026020016040519081016040528092919081815260200182805460018160011615610100020316600290048015610e075780601f10610ddc57610100808354040283529160200191610e07565b820191906000526020600020905b815481529060010190602001808311610dea57829003601f168201915b50505050509050600081905060008151141592505050919050565b828054600181600116156101000203166002900490600052602060002090601f016020900481019282610e585760008555610e9f565b82601f10610e7157805160ff1916838001178555610e9f565b82800160010185558215610e9f579182015b82811115610e9e578251825591602001919060010190610e83565b5b509050610eac9190610eb0565b5090565b5b80821115610ec9576000816000905550600101610eb1565b509056fe5365207065726d697465206c6120726563657063696f6e2064652064696e65726f2ea264697066735822122028ddef334871be0657d42a800179436e79c72b0b7c9b9dd8ea96831405da001c64736f6c63430007060033456c20636f7374652064656c206576656e746f206e6f20707565646520657374617220766163696f456c206e6f6d6272652064656c206576656e746f206e6f2070756564652073657220766163696f4c612066656368612064656c206576656e746f206e6f20707565646520657374617220766163696f",
  "immutableReferences": {},
  "source": "// SPDX-License-Identifier: UNLICENSED\r\npragma solidity ^0.7.6;\r\n\r\n/**\r\n *  El contrato Qr para Orange 5G.\r\n * \r\n * Posibles errores que hay que corregir:\r\n *  - Cambiar algunos uint a uint8 ??\r\n *  - Es muy basico quiza falta algun metodo mas\r\n */\r\ncontract Qr {\r\n    bool locked = false;\r\n    \r\n    /**\r\n     * address del admin que ha desplegado el contrato.\r\n     * El contrato lo despliega el admin.\r\n     */\r\n    address payable public admin;\r\n    \r\n    /// Nombre de la evento\r\n    string public nombre;\r\n    \r\n    // Fecha\r\n    uint public fecha;\r\n    \r\n    \r\n    // Precio\r\n    uint public cost;\r\n    \r\n    /**\r\n     * Datos de una Evento.\r\n     \r\n    struct Evento {\r\n        string nombre;\r\n        uint fecha;\r\n        uint cost;\r\n        \r\n    }\r\n    \r\n    \r\n    /// Eventos.\r\n    Evento[] public eventos;\r\n*/\r\n\r\n    /// Datos de un Asistente.\r\n    struct Asistente {\r\n        string nombre;\r\n        string email;\r\n    }\r\n    \r\n    \r\n    /// Acceder a los datos de un asistente dada su direccion.\r\n    mapping (address  => Asistente) public asistente;\r\n    \r\n    \r\n    // Array con las direcciones de los asistentes.\r\n    address payable[] public asistentes;\r\n    \r\n    \r\n    /// Tipos de acceso: presente, presente con permisos y admin.\r\n    enum TipoAsistente { pres, perm, admin }\r\n    \r\n   \r\n    /**\r\n     * Constructor.\r\n     * \r\n     * @param _nombre Nombre del evento.\r\n     * @param _fecha  Fecha del evento.\r\n     */\r\n    constructor(string memory _nombre, uint  _fecha, uint _cost) {\r\n        \r\n        bytes memory bn = bytes(_nombre);\r\n        require(bn.length != 0, \"El nombre del evento no puede ser vacio\");\r\n        require(_fecha != 0, \"La fecha del evento no puede estar vacio\");\r\n        require(_cost != 0 || _cost == 0, \"El coste del evento no puede estar vacio\");\r\n      \r\n        admin = payable(msg.sender);\r\n        fecha = _fecha;\r\n        nombre = _nombre;\r\n        cost = _cost;\r\n        \r\n        \r\n    }\r\n    \r\n      /**\r\n     \r\n   \r\n    function creaEvento(string memory _nombre, uint _fecha, uint _cost) soloAdmin public returns (uint) {\r\n        \r\n        bytes memory bn = bytes(_nombre);\r\n        require(bn.length != 0, \"El nombre del evento no puede ser vacio\");\r\n        require(_fecha != 0, \"la fecha del evento no puede estar vacio\");\r\n        require(_cost != 0 || _cost == 0, \"El coste del evento no puede estar vacio\");\r\n        eventos.push(Evento(_nombre, _fecha, _cost));\r\n        return eventos.length - 1;\r\n    }\r\n      */\r\n \r\n     /**\r\n     * El numero de  asistentes.\r\n     *\r\n     * @return El numero de asistentes.\r\n     */\r\n    function asistentesLength() public view returns(uint) {\r\n        return asistentes.length;\r\n    }\r\n    \r\n    \r\n    /**\r\n     * Los ususarios se apuntan a traves de este metodo.\r\n     * \r\n     * Impedir que se pueda meter un nombre vacio.\r\n     *\r\n     * @param _nombre El nombre del asistente. \r\n     * @param _email  El email del asistente.\r\n     \r\n    function compraEntrada(string memory _nombre, string memory _email) noAsistentes public  {\r\n        \r\n       \r\n        require(!locked, \"Reentrant call detected!\");\r\n        locked = true;\r\n        (bool success,) = admin.call{value: cost}(\"\");\r\n        require(success, \"Failed to send Ether\");\r\n        locked = false;\r\n        \r\n        bytes memory b = bytes(_nombre); \r\n        require(b.length != 0, \"El nombre no puede ser vacio\");\r\n        Asistente memory datos = Asistente(_nombre, _email);\r\n        asistente[msg.sender] = datos;\r\n        asistentes.push(msg.sender);\r\n        \r\n    }\r\n    */\r\n     function compraEntrada(string memory _nombre, string memory _email) noAsistentes public {\r\n\r\n        bytes memory b = bytes(_nombre);\r\n        require(b.length != 0, \"El nombre no puede ser vacio\");\r\n\r\n        Asistente memory datos = Asistente(_nombre, _email);\r\n\r\n        asistente[msg.sender] = datos;\r\n\r\n        asistentes.push(msg.sender);\r\n\r\n    }\r\n    \r\n   \r\n    function whoAmI() soloAsistentes public view returns (string memory _nombre, string memory _email) {\r\n        Asistente memory datos = asistente[msg.sender];\r\n        _nombre = datos.nombre;\r\n        _email = datos.email;\r\n    }\r\n    \r\n    \r\n    /**\r\n     * Modificador para que una funcion solo la pueda ejecutar alguien asistente.\r\n     */\r\n    function isIn(address assadd) private view returns (bool) {\r\n      \r\n        string memory _nombre = asistente[assadd].nombre;\r\n        bytes memory b = bytes(_nombre);\r\n        return b.length != 0;\r\n    } \r\n   function getBalance( ) public view returns(uint256){\r\n        return admin.balance;\r\n    }\r\n   \r\n   \r\n    modifier soloAdmin() {\r\n        \r\n        require(msg.sender == admin, \"Solo permitido al admin\");\r\n        _;\r\n    }\r\n    \r\n    \r\n    /**\r\n     * Modificador para que una funcion solo la pueda ejecutar alguien asistente.\r\n     */\r\n    modifier soloAsistentes {\r\n        \r\n        require(isIn(msg.sender), \"Solo permitido a asistentes\");\r\n        _;\r\n    }\r\n    \r\n    \r\n    /**\r\n     * Modificador para que una funcion solo la pueda ejecutar un no asistente.\r\n     */\r\n    modifier noAsistentes() {\r\n        \r\n        require(!isIn(msg.sender), \"Solo permitido a no asistentes\");\r\n        _;\r\n    }\r\n    \r\n   \r\n    \r\n    /**\r\n     * No se permite la recepcion de dinero.\r\n   \r\n      */\r\n    receive() external payable {\r\n        revert(\"Se permite la recepcion de dinero.\");\r\n    }\r\n    \r\n}",
  "sourcePath": "/home/javier/besu-21.1.7/smartContract/contracts/Qr.sol",
  "compiler": {
    "name": "solc",
    "version": "0.7.6+commit.7338295f.Emscripten.clang"
  },
  "schemaVersion": "3.4.1",
  "updatedAt": "2021-06-27T09:18:35.488Z",
  "networkType": "ethereum",
  "devdoc": {
    "kind": "dev",
    "methods": {
      "asistentesLength()": {
        "returns": {
          "_0": "El numero de asistentes."
        }
      },
      "compraEntrada(string,string)": {
        "params": {
          "_email": "El email del asistente. function compraEntrada(string memory _nombre, string memory _email) noAsistentes public  { require(!locked, \"Reentrant call detected!\"); locked = true; (bool success,) = admin.call{value: cost}(\"\"); require(success, \"Failed to send Ether\"); locked = false; bytes memory b = bytes(_nombre);  require(b.length != 0, \"El nombre no puede ser vacio\"); Asistente memory datos = Asistente(_nombre, _email); asistente[msg.sender] = datos; asistentes.push(msg.sender); }",
          "_nombre": "El nombre del asistente. "
        }
      },
      "constructor": {
        "params": {
          "_fecha": "Fecha del evento.",
          "_nombre": "Nombre del evento."
        }
      }
    },
    "version": 1
  },
  "userdoc": {
    "kind": "user",
    "methods": {
      "admin()": {
        "notice": "address del admin que ha desplegado el contrato. El contrato lo despliega el admin."
      },
      "asistente(address)": {
        "notice": "Acceder a los datos de un asistente dada su direccion."
      },
      "asistentesLength()": {
        "notice": "El numero de  asistentes."
      },
      "compraEntrada(string,string)": {
        "notice": "Los ususarios se apuntan a traves de este metodo.  Impedir que se pueda meter un nombre vacio."
      },
      "constructor": {
        "notice": "Constructor. "
      },
      "nombre()": {
        "notice": "Nombre de la evento"
      }
    },
    "notice": "El contrato Qr para Orange 5G.  Posibles errores que hay que corregir:  - Cambiar algunos uint a uint8 ??  - Es muy basico quiza falta algun metodo mas",
    "version": 1
  }
}