{
  "contractName": "Qr",
  "abi": [
    {
      "inputs": [
        {
          "internalType": "string",
          "name": "_nombre",
          "type": "string"
        },
        {
          "internalType": "uint256",
          "name": "_fecha",
          "type": "uint256"
        },
        {
          "internalType": "uint256",
          "name": "_cost",
          "type": "uint256"
        }
      ],
      "stateMutability": "nonpayable",
      "type": "constructor"
    },
    {
      "inputs": [],
      "name": "admin",
      "outputs": [
        {
          "internalType": "address payable",
          "name": "",
          "type": "address"
        }
      ],
      "stateMutability": "view",
      "type": "function",
      "constant": true
    },
    {
      "inputs": [
        {
          "internalType": "address",
          "name": "",
          "type": "address"
        }
      ],
      "name": "asistente",
      "outputs": [
        {
          "internalType": "string",
          "name": "nombre",
          "type": "string"
        },
        {
          "internalType": "string",
          "name": "email",
          "type": "string"
        }
      ],
      "stateMutability": "view",
      "type": "function",
      "constant": true
    },
    {
      "inputs": [
        {
          "internalType": "uint256",
          "name": "",
          "type": "uint256"
        }
      ],
      "name": "asistentes",
      "outputs": [
        {
          "internalType": "address payable",
          "name": "",
          "type": "address"
        }
      ],
      "stateMutability": "view",
      "type": "function",
      "constant": true
    },
    {
      "inputs": [],
      "name": "cost",
      "outputs": [
        {
          "internalType": "uint256",
          "name": "",
          "type": "uint256"
        }
      ],
      "stateMutability": "view",
      "type": "function",
      "constant": true
    },
    {
      "inputs": [],
      "name": "fecha",
      "outputs": [
        {
          "internalType": "uint256",
          "name": "",
          "type": "uint256"
        }
      ],
      "stateMutability": "view",
      "type": "function",
      "constant": true
    },
    {
      "inputs": [],
      "name": "nombre",
      "outputs": [
        {
          "internalType": "string",
          "name": "",
          "type": "string"
        }
      ],
      "stateMutability": "view",
      "type": "function",
      "constant": true
    },
    {
      "stateMutability": "payable",
      "type": "receive",
      "payable": true
    },
    {
      "inputs": [],
      "name": "asistentesLength",
      "outputs": [
        {
          "internalType": "uint256",
          "name": "",
          "type": "uint256"
        }
      ],
      "stateMutability": "view",
      "type": "function",
      "constant": true
    },
    {
      "inputs": [
        {
          "internalType": "string",
          "name": "_nombre",
          "type": "string"
        },
        {
          "internalType": "string",
          "name": "_email",
          "type": "string"
        }
      ],
      "name": "compraEntrada",
      "outputs": [],
      "stateMutability": "payable",
      "type": "function",
      "payable": true
    },
    {
      "inputs": [],
      "name": "whoAmI",
      "outputs": [
        {
          "internalType": "string",
          "name": "_nombre",
          "type": "string"
        },
        {
          "internalType": "string",
          "name": "_email",
          "type": "string"
        }
      ],
      "stateMutability": "view",
      "type": "function",
      "constant": true
    },
    {
      "inputs": [],
      "name": "getBalance",
      "outputs": [
        {
          "internalType": "uint256",
          "name": "",
          "type": "uint256"
        }
      ],
      "stateMutability": "view",
      "type": "function",
      "constant": true
    }
  ],
  "bytecode": "0x608060405260008060006101000a81548160ff0219169083151502179055503480156200002b57600080fd5b50604051620014cb380380620014cb833981810160405260608110156200005157600080fd5b81019080805160405193929190846401000000008211156200007257600080fd5b838201915060208201858111156200008957600080fd5b8251866001820283011164010000000082111715620000a757600080fd5b8083526020830192505050908051906020019080838360005b83811015620000dd578082015181840152602081019050620000c0565b50505050905090810190601f1680156200010b5780820380516001836020036101000a031916815260200191505b50604052602001805190602001909291908051906020019092919050505060008390506000815114156200018b576040517f08c379a00000000000000000000000000000000000000000000000000000000081526004018080602001828103825260278152602001806200147c6027913960400191505060405180910390fd5b6000831415620001e7576040517f08c379a0000000000000000000000000000000000000000000000000000000008152600401808060200182810382526028815260200180620014a36028913960400191505060405180910390fd5b600082141580620001f85750600082145b6200024f576040517f08c379a0000000000000000000000000000000000000000000000000000000008152600401808060200182810382526028815260200180620014546028913960400191505060405180910390fd5b33600060016101000a81548173ffffffffffffffffffffffffffffffffffffffff021916908373ffffffffffffffffffffffffffffffffffffffff160217905550826002819055508360019080519060200190620002af929190620002c1565b50816003819055505050505062000377565b828054600181600116156101000203166002900490600052602060002090601f016020900481019282620002f9576000855562000345565b82601f106200031457805160ff191683800117855562000345565b8280016001018555821562000345579182015b828111156200034457825182559160200191906001019062000327565b5b50905062000354919062000358565b5090565b5b808211156200037357600081600090555060010162000359565b5090565b6110cd80620003876000396000f3fe6080604052600436106100955760003560e01c80637e81e0d5116100595780637e81e0d51461030c578063a52ae00814610337578063bc7b35b214610489578063da91254c14610519578063f851a44014610615576100eb565b80630d4b1ecf146100f05780630f444d2c1461011b57806312065fe01461018057806313faede6146101ab5780633629e10f146101d6576100eb565b366100eb576040517f08c379a00000000000000000000000000000000000000000000000000000000081526004018080602001828103825260228152602001806110766022913960400191505060405180910390fd5b600080fd5b3480156100fc57600080fd5b50610105610656565b6040518082815260200191505060405180910390f35b34801561012757600080fd5b506101546004803603602081101561013e57600080fd5b8101908080359060200190929190505050610663565b604051808273ffffffffffffffffffffffffffffffffffffffff16815260200191505060405180910390f35b34801561018c57600080fd5b506101956106a2565b6040518082815260200191505060405180910390f35b3480156101b757600080fd5b506101c06106e2565b6040518082815260200191505060405180910390f35b3480156101e257600080fd5b50610225600480360360208110156101f957600080fd5b81019080803573ffffffffffffffffffffffffffffffffffffffff1690602001909291905050506106e8565b604051808060200180602001838103835285818151815260200191508051906020019080838360005b8381101561026957808201518184015260208101905061024e565b50505050905090810190601f1680156102965780820380516001836020036101000a031916815260200191505b50838103825284818151815260200191508051906020019080838360005b838110156102cf5780820151818401526020810190506102b4565b50505050905090810190601f1680156102fc5780820380516001836020036101000a031916815260200191505b5094505050505060405180910390f35b34801561031857600080fd5b5061032161083c565b6040518082815260200191505060405180910390f35b6104876004803603604081101561034d57600080fd5b810190808035906020019064010000000081111561036a57600080fd5b82018360208201111561037c57600080fd5b8035906020019184600183028401116401000000008311171561039e57600080fd5b91908080601f016020809104026020016040519081016040528093929190818152602001838380828437600081840152601f19601f8201169050808301925050505050505091929192908035906020019064010000000081111561040157600080fd5b82018360208201111561041357600080fd5b8035906020019184600183028401116401000000008311171561043557600080fd5b91908080601f016020809104026020016040519081016040528093929190818152602001838380828437600081840152601f19601f820116905080830192505050505050509192919290505050610842565b005b34801561049557600080fd5b5061049e610bef565b6040518080602001828103825283818151815260200191508051906020019080838360005b838110156104de5780820151818401526020810190506104c3565b50505050905090810190601f16801561050b5780820380516001836020036101000a031916815260200191505b509250505060405180910390f35b34801561052557600080fd5b5061052e610c8d565b604051808060200180602001838103835285818151815260200191508051906020019080838360005b83811015610572578082015181840152602081019050610557565b50505050905090810190601f16801561059f5780820380516001836020036101000a031916815260200191505b50838103825284818151815260200191508051906020019080838360005b838110156105d85780820151818401526020810190506105bd565b50505050905090810190601f1680156106055780820380516001836020036101000a031916815260200191505b5094505050505060405180910390f35b34801561062157600080fd5b5061062a610eb0565b604051808273ffffffffffffffffffffffffffffffffffffffff16815260200191505060405180910390f35b6000600580549050905090565b6005818154811061067357600080fd5b906000526020600020016000915054906101000a900473ffffffffffffffffffffffffffffffffffffffff1681565b60008060019054906101000a900473ffffffffffffffffffffffffffffffffffffffff1673ffffffffffffffffffffffffffffffffffffffff1631905090565b60035481565b6004602052806000526040600020600091509050806000018054600181600116156101000203166002900480601f0160208091040260200160405190810160405280929190818152602001828054600181600116156101000203166002900480156107945780601f1061076957610100808354040283529160200191610794565b820191906000526020600020905b81548152906001019060200180831161077757829003601f168201915b505050505090806001018054600181600116156101000203166002900480601f0160208091040260200160405190810160405280929190818152602001828054600181600116156101000203166002900480156108325780601f1061080757610100808354040283529160200191610832565b820191906000526020600020905b81548152906001019060200180831161081557829003601f168201915b5050505050905082565b60025481565b61084b33610ed6565b156108be576040517f08c379a000000000000000000000000000000000000000000000000000000000815260040180806020018281038252601e8152602001807f536f6c6f207065726d697469646f2061206e6f206173697374656e746573000081525060200191505060405180910390fd5b60008054906101000a900460ff161561093f576040517f08c379a00000000000000000000000000000000000000000000000000000000081526004018080602001828103825260188152602001807f5265656e7472616e742063616c6c20646574656374656421000000000000000081525060200191505060405180910390fd5b60016000806101000a81548160ff02191690831515021790555060008060019054906101000a900473ffffffffffffffffffffffffffffffffffffffff1673ffffffffffffffffffffffffffffffffffffffff1660035460405180600001905060006040518083038185875af1925050503d80600081146109dc576040519150601f19603f3d011682016040523d82523d6000602084013e6109e1565b606091505b5050905080610a58576040517f08c379a00000000000000000000000000000000000000000000000000000000081526004018080602001828103825260148152602001807f4661696c656420746f2073656e6420457468657200000000000000000000000081525060200191505060405180910390fd5b60008060006101000a81548160ff0219169083151502179055506000839050600081511415610aef576040517f08c379a000000000000000000000000000000000000000000000000000000000815260040180806020018281038252601c8152602001807f456c206e6f6d627265206e6f2070756564652073657220766163696f0000000081525060200191505060405180910390fd5b6000604051806040016040528086815260200185815250905080600460003373ffffffffffffffffffffffffffffffffffffffff1673ffffffffffffffffffffffffffffffffffffffff1681526020019081526020016000206000820151816000019080519060200190610b64929190610fca565b506020820151816001019080519060200190610b81929190610fca565b509050506005339080600181540180825580915050600190039060005260206000200160009091909190916101000a81548173ffffffffffffffffffffffffffffffffffffffff021916908373ffffffffffffffffffffffffffffffffffffffff1602179055505050505050565b60018054600181600116156101000203166002900480601f016020809104026020016040519081016040528092919081815260200182805460018160011615610100020316600290048015610c855780601f10610c5a57610100808354040283529160200191610c85565b820191906000526020600020905b815481529060010190602001808311610c6857829003601f168201915b505050505081565b606080610c9933610ed6565b610d0b576040517f08c379a000000000000000000000000000000000000000000000000000000000815260040180806020018281038252601b8152602001807f536f6c6f207065726d697469646f2061206173697374656e746573000000000081525060200191505060405180910390fd5b6000600460003373ffffffffffffffffffffffffffffffffffffffff1673ffffffffffffffffffffffffffffffffffffffff168152602001908152602001600020604051806040016040529081600082018054600181600116156101000203166002900480601f016020809104026020016040519081016040528092919081815260200182805460018160011615610100020316600290048015610df05780601f10610dc557610100808354040283529160200191610df0565b820191906000526020600020905b815481529060010190602001808311610dd357829003601f168201915b50505050508152602001600182018054600181600116156101000203166002900480601f016020809104026020016040519081016040528092919081815260200182805460018160011615610100020316600290048015610e925780601f10610e6757610100808354040283529160200191610e92565b820191906000526020600020905b815481529060010190602001808311610e7557829003601f168201915b50505050508152505090508060000151925080602001519150509091565b600060019054906101000a900473ffffffffffffffffffffffffffffffffffffffff1681565b600080600460008473ffffffffffffffffffffffffffffffffffffffff1673ffffffffffffffffffffffffffffffffffffffff1681526020019081526020016000206000018054600181600116156101000203166002900480601f016020809104026020016040519081016040528092919081815260200182805460018160011615610100020316600290048015610faf5780601f10610f8457610100808354040283529160200191610faf565b820191906000526020600020905b815481529060010190602001808311610f9257829003601f168201915b50505050509050600081905060008151141592505050919050565b828054600181600116156101000203166002900490600052602060002090601f0160209004810192826110005760008555611047565b82601f1061101957805160ff1916838001178555611047565b82800160010185558215611047579182015b8281111561104657825182559160200191906001019061102b565b5b5090506110549190611058565b5090565b5b80821115611071576000816000905550600101611059565b509056fe5365207065726d697465206c6120726563657063696f6e2064652064696e65726f2ea2646970667358221220ff18285a2409bbdf66eb8cc2304bfbb36d94d32419d4c689295c048157a4fad164736f6c63430007060033456c20636f7374652064656c206576656e746f206e6f20707565646520657374617220766163696f456c206e6f6d6272652064656c206576656e746f206e6f2070756564652073657220766163696f4c612066656368612064656c206576656e746f206e6f20707565646520657374617220766163696f",
  "immutableReferences": {},
  "source": "// SPDX-License-Identifier: UNLICENSED\r\npragma solidity ^0.7.6;\r\n\r\n/**\r\n *  El contrato Qr para Orange 5G.\r\n * \r\n * Posibles errores que hay que corregir:\r\n *  - Cambiar algunos uint a uint8 ??\r\n *  - Es muy basico quiza falta algun metodo mas\r\n */\r\ncontract Qr {\r\n    bool locked = false;\r\n    \r\n    /**\r\n     * address del admin que ha desplegado el contrato.\r\n     * El contrato lo despliega el admin.\r\n     */\r\n    address payable public admin;\r\n    \r\n    /// Nombre de la evento\r\n    string public nombre;\r\n    \r\n    // Fecha\r\n    uint public fecha;\r\n    \r\n    \r\n    // Precio\r\n    uint public cost;\r\n    \r\n    /**\r\n     * Datos de una Evento.\r\n     \r\n    struct Evento {\r\n        string nombre;\r\n        uint fecha;\r\n        uint cost;\r\n        \r\n    }\r\n    \r\n    \r\n    /// Eventos.\r\n    Evento[] public eventos;\r\n*/\r\n\r\n    /// Datos de un Asistente.\r\n    struct Asistente {\r\n        string nombre;\r\n        string email;\r\n    }\r\n    \r\n    \r\n    /// Acceder a los datos de un asistente dada su direccion.\r\n    mapping (address  => Asistente) public asistente;\r\n    \r\n    \r\n    // Array con las direcciones de los asistentes.\r\n    address payable[] public asistentes;\r\n    \r\n    \r\n    /// Tipos de acceso: presente, presente con permisos y admin.\r\n    enum TipoAsistente { pres, perm, admin }\r\n    \r\n   \r\n    /**\r\n     * Constructor.\r\n     * \r\n     * @param _nombre Nombre del evento.\r\n     * @param _fecha  Fecha del evento.\r\n     */\r\n    constructor(string memory _nombre, uint  _fecha, uint _cost) {\r\n        \r\n        bytes memory bn = bytes(_nombre);\r\n        require(bn.length != 0, \"El nombre del evento no puede ser vacio\");\r\n        require(_fecha != 0, \"La fecha del evento no puede estar vacio\");\r\n        require(_cost != 0 || _cost == 0, \"El coste del evento no puede estar vacio\");\r\n      \r\n        admin = payable(msg.sender);\r\n        fecha = _fecha;\r\n        nombre = _nombre;\r\n        cost = _cost;\r\n        \r\n        \r\n    }\r\n    \r\n      /**\r\n     \r\n   \r\n    function creaEvento(string memory _nombre, uint _fecha, uint _cost) soloAdmin public returns (uint) {\r\n        \r\n        bytes memory bn = bytes(_nombre);\r\n        require(bn.length != 0, \"El nombre del evento no puede ser vacio\");\r\n        require(_fecha != 0, \"la fecha del evento no puede estar vacio\");\r\n        require(_cost != 0 || _cost == 0, \"El coste del evento no puede estar vacio\");\r\n        eventos.push(Evento(_nombre, _fecha, _cost));\r\n        return eventos.length - 1;\r\n    }\r\n      */\r\n \r\n     /**\r\n     * El numero de  asistentes.\r\n     *\r\n     * @return El numero de asistentes.\r\n     */\r\n    function asistentesLength() public view returns(uint) {\r\n        return asistentes.length;\r\n    }\r\n    \r\n    \r\n    /**\r\n     * Los ususarios se apuntan a traves de este metodo.\r\n     * \r\n     * Impedir que se pueda meter un nombre vacio.\r\n     *\r\n     * @param _nombre El nombre del asistente. \r\n     * @param _email  El email del asistente.\r\n     */\r\n    function compraEntrada(string memory _nombre, string memory _email) noAsistentes public payable {\r\n        \r\n        require(!locked, \"Reentrant call detected!\");\r\n        locked = true;\r\n        (bool success,) = admin.call{value: cost}(\"\");\r\n        require(success, \"Failed to send Ether\");\r\n        locked = false;\r\n        \r\n        bytes memory b = bytes(_nombre); \r\n        require(b.length != 0, \"El nombre no puede ser vacio\");\r\n        Asistente memory datos = Asistente(_nombre, _email);\r\n        asistente[msg.sender] = datos;\r\n        asistentes.push(msg.sender);\r\n        \r\n    }\r\n    \r\n    \r\n   \r\n    function whoAmI() soloAsistentes public view returns (string memory _nombre, string memory _email) {\r\n        Asistente memory datos = asistente[msg.sender];\r\n        _nombre = datos.nombre;\r\n        _email = datos.email;\r\n    }\r\n    \r\n    \r\n    /**\r\n     * Modificador para que una funcion solo la pueda ejecutar alguien asistente.\r\n     */\r\n    function isIn(address assadd) private view returns (bool) {\r\n      \r\n        string memory _nombre = asistente[assadd].nombre;\r\n        bytes memory b = bytes(_nombre);\r\n        return b.length != 0;\r\n    } \r\n   function getBalance( ) public view returns(uint256){\r\n        return admin.balance;\r\n    }\r\n   \r\n   \r\n    modifier soloAdmin() {\r\n        \r\n        require(msg.sender == admin, \"Solo permitido al admin\");\r\n        _;\r\n    }\r\n    \r\n    \r\n    /**\r\n     * Modificador para que una funcion solo la pueda ejecutar alguien asistente.\r\n     */\r\n    modifier soloAsistentes {\r\n        \r\n        require(isIn(msg.sender), \"Solo permitido a asistentes\");\r\n        _;\r\n    }\r\n    \r\n    \r\n    /**\r\n     * Modificador para que una funcion solo la pueda ejecutar un no asistente.\r\n     */\r\n    modifier noAsistentes() {\r\n        \r\n        require(!isIn(msg.sender), \"Solo permitido a no asistentes\");\r\n        _;\r\n    }\r\n    \r\n   \r\n    \r\n    /**\r\n     * No se permite la recepcion de dinero.\r\n   \r\n      */\r\n    receive() external payable {\r\n        revert(\"Se permite la recepcion de dinero.\");\r\n    }\r\n    \r\n}",
  "sourcePath": "/home/javier/besu-21.1.7/smartContract/contracts/Qr.sol",
  "compiler": {
    "name": "solc",
    "version": "0.7.6+commit.7338295f.Emscripten.clang"
  },
  "schemaVersion": "3.4.1",
  "updatedAt": "2021-06-25T17:01:39.740Z",
  "networkType": "ethereum",
  "devdoc": {
    "kind": "dev",
    "methods": {
      "asistentesLength()": {
        "returns": {
          "_0": "El numero de asistentes."
        }
      },
      "compraEntrada(string,string)": {
        "params": {
          "_email": "El email del asistente.",
          "_nombre": "El nombre del asistente. "
        }
      },
      "constructor": {
        "params": {
          "_fecha": "Fecha del evento.",
          "_nombre": "Nombre del evento."
        }
      }
    },
    "version": 1
  },
  "userdoc": {
    "kind": "user",
    "methods": {
      "admin()": {
        "notice": "address del admin que ha desplegado el contrato. El contrato lo despliega el admin."
      },
      "asistente(address)": {
        "notice": "Acceder a los datos de un asistente dada su direccion."
      },
      "asistentesLength()": {
        "notice": "El numero de  asistentes."
      },
      "compraEntrada(string,string)": {
        "notice": "Los ususarios se apuntan a traves de este metodo.  Impedir que se pueda meter un nombre vacio."
      },
      "constructor": {
        "notice": "Constructor. "
      },
      "nombre()": {
        "notice": "Nombre de la evento"
      }
    },
    "notice": "El contrato Qr para Orange 5G.  Posibles errores que hay que corregir:  - Cambiar algunos uint a uint8 ??  - Es muy basico quiza falta algun metodo mas",
    "version": 1
  }
}