{
  "contractName": "Storage",
  "abi": [
    {
      "inputs": [
        {
          "internalType": "uint256",
          "name": "num",
          "type": "uint256"
        }
      ],
      "name": "store",
      "outputs": [],
      "stateMutability": "nonpayable",
      "type": "function"
    },
    {
      "inputs": [],
      "name": "retrieve",
      "outputs": [
        {
          "internalType": "uint256",
          "name": "",
          "type": "uint256"
        }
      ],
      "stateMutability": "view",
      "type": "function",
      "constant": true
    }
  ],
  "bytecode": "0x608060405234801561001057600080fd5b5060c78061001f6000396000f3fe6080604052348015600f57600080fd5b506004361060325760003560e01c80632e64cec11460375780636057361d146053575b600080fd5b603d607e565b6040518082815260200191505060405180910390f35b607c60048036036020811015606757600080fd5b81019080803590602001909291905050506087565b005b60008054905090565b806000819055505056fea2646970667358221220535cb032f496ed1a375adedf16f44f58ad9d0f6a217999780189efb5d532087864736f6c63430007060033",
  "immutableReferences": {},
  "source": "// SPDX-License-Identifier: GPL-3.0\n\npragma solidity >=0.7.0 <0.9.0;\n\n/**\n * @title Storage\n * @dev Store & retrieve value in a variable\n */\ncontract Storage {\n\n    uint256 number;\n\n    /**\n     * @dev Store value in variable\n     * @param num value to store\n     */\n    function store(uint256 num) public {\n        number = num;\n    }\n\n    /**\n     * @dev Return value \n     * @return value of 'number'\n     */\n    function retrieve() public view returns (uint256){\n        return number;\n    }\n}",
  "sourcePath": "/home/javier/besu-21.1.7/smartContract/contracts/Storage.sol",
  "compiler": {
    "name": "solc",
    "version": "0.7.6+commit.7338295f.Emscripten.clang"
  },
  "schemaVersion": "3.4.1",
  "updatedAt": "2021-06-25T17:01:35.462Z",
  "networkType": "ethereum",
  "devdoc": {
    "details": "Store & retrieve value in a variable",
    "kind": "dev",
    "methods": {
      "retrieve()": {
        "details": "Return value ",
        "returns": {
          "_0": "value of 'number'"
        }
      },
      "store(uint256)": {
        "details": "Store value in variable",
        "params": {
          "num": "value to store"
        }
      }
    },
    "title": "Storage",
    "version": 1
  },
  "userdoc": {
    "kind": "user",
    "methods": {},
    "version": 1
  }
}